:020000041000EA
:1000000000B5324B212058609868022188439860DF
:10001000D860186158612E4B002199600221596106
:100020000121F02299502B49196001219960352056
:1000300000F044F80222904214D00621196600F024
:1000400034F8196E01211966002018661A6600F04E
:100050002CF8196E196E196E052000F02FF8012189
:100060000842F9D1002199601B49196000215960AB
:100070001A491B48016001219960EB211966A021F2
:10008000196600F012F800219960164914480160C1
:100090000121996001BC002800D000471248134993
:1000A000086003C880F30888084703B5996A0420EC
:1000B0000142FBD001200142F8D103BD02B5186610
:1000C0001866FFF7F2FF186E186E02BD00000240BE
:1000D000000000180000070000035F00212200005C
:1000E000F4000018222000A00001001008ED00E03C
:1000F00000000000000000000000000074B24E7A12
:1001000000200420F7010010C3010010C5010010F9
:10011000C1010010C1010010C1010010C101001097
:10012000C1010010C1010010C1010010C701001081
:10013000C1010010C1010010C9010010CB01001065
:10014000CD010010CD010010CD010010CD01001037
:10015000CD010010CD010010CD010010CD01001027
:10016000CD010010CD010010CD010010CD01001017
:10017000CD010010CD010010CD010010CD01001007
:10018000CD010010CD010010CD010010CD010010F7
:10019000CD010010CD010010CD010010CD010010E7
:1001A000CD010010CD010010CD010010CD010010D7
:1001B000CD010010CD010010CD010010CD010010C7
:1001C00000BE00BE00BE00BE00BE00BEEFF3058054
:1001D000103800BEF2EB88712C0801104C08011099
:1001E0003402001090A31AE700201F49086006C8D7
:1001F00081F3088810471D48006800282FD10DA4FE
:100200000ECC002902D000F012F8F9E71849194A7B
:10021000002000E001C19142FCD1174988471749ED
:1002200088471749884700BEFDE701C901C29A42C5
:10023000FBD370474C080110C0000020F0180020CC
:100240007C20011000000420000004207C2001100C
:10025000001004200010042000000000704709482E
:1002600004F044FA0047000008ED00E0000000D070
:10027000F01800208C28002045340010FD070010E5
:10028000013400105756000006005250ABB36053C3
:1002900010F6001006005250861C030220F60010D3
:1002A000060052505422A29D28F60010050052501C
:1002B000DE65F4687C200110F8B5C04610B5064C28
:1002C0002378002B07D1054B002B02D0044800E017
:1002D00000BF0123237010BDF819002000000000AA
:1002E00060E40010044B10B5002B03D00349044810
:1002F00000E000BF10BDC04600000000FC19002057
:1003000060E4001010B5082806D009280ED00A288D
:1003100016D00B281ED010BD134800F034FC134B30
:1003200001225A70124806F003F8F4E70E4800F074
:100330002AFC0E4B01225A700E4805F0F9FFEAE73D
:100340000D4800F020FC094B01229A700B4805F083
:10035000EFFFE0E7084800F016FC044B01229A701A
:10036000074805F0E5FFD6E7E00D00205420002007
:1003700060E4001080E400100C0E0020A4E40010E3
:10038000C4E4001010B598B0002419E023480023FD
:1003900003556B460C22224900F018FB214B5B7978
:1003A000002B0AD1002808D1602269461E4805F0BA
:1003B00057FE1C4B01221A7001E0012810D00024C6
:1003C000002007F04FFC0028FAD0012005F0F0FFD4
:1003D000C0B20A28DAD0114B18550134E4B2EFE765
:1003E000124C60226946200005F03AFE10492000B8
:1003F00009F044FB0028E2D10C4B1B6A002B06D10C
:10040000084B0122DA700B4805F092FFD7E7012B69
:10041000F9D1044B01221A71F5E7C046702700207C
:10042000480C002054200020C82400206024002014
:10043000E4E40010F0E4001070B5D0242406402558
:100440006561642002F0AAF9A561642002F0A6F9B2
:100450006561642002F0A2F9A561AF20800002F07E
:100460009DF9EAE7F0B59DB00400002303936022F4
:10047000002104A805F0EEFDC94B01225A71C949BB
:10048000200009F0FBFA002856D0C749200009F0E7
:10049000F5FA002868D0C549200009F0EFFA0028D5
:1004A00000D16EE0C249200009F0E8FA002800D12E
:1004B00079E0C049200009F0E1FA002800D184E089
:1004C000BD49200009F0DAFA002800D18FE0BB49CD
:1004D000200009F0D3FA002806D0B949200009F01D
:1004E000CDFA002800D0DFE0B549200009F0C6FAB7
:1004F000002801D1B34BA362236A002B00D188E00E
:10050000012B00D09BE0D0231B065B685B0503D565
:10051000636A002B00D1B2E0D0231B065B681B0589
:1005200000D4B2E0636A012B00D1B4E000259C4BFB
:100530001E1D0233A44A90E0A44D0121286800F05A
:10054000E3FC01220243D2B22868012100F0F4FC4E
:100550009B49200009F092FA002800D019E1904B45
:1005600000225A711DB0F0BD984D0121286800F09D
:10057000CBFC01239843C2B22868012100F0DCFCC7
:10058000E6E7924D0121286800F0BEFC0723226AAD
:100590009B1ADBB201229A400243D2B228680121A1
:1005A00000F0CAFCD4E7894D0121286800F0ACFCBA
:1005B0000723226A9B1ADBB201229A409043C2B2FF
:1005C0002868012100F0B8FCC2E7804D01212868AD
:1005D00000F09AFC0323226A9B1ADBB201229A40A4
:1005E0000243D2B22868012100F0A6FCB0E7774DA3
:1005F0000121286800F088FC0323226A9B1ADBB2E1
:1006000001229A409043C2B22868012100F094FC74
:100610009EE7D0231B065B68DB0502D5636A002BCF
:1006200010D0D0231B065B689B0511D5636A012B94
:100630001FD000255A4BDE1C0133654A0DE0002017
:10064000FFF7FAFE0125564BDE1C0133604A04E039
:100650000025534BDE1C01335D4A616AC9B2012992
:100660001FD8A06A002D00D072E7009600F09AFA19
:100670006EE701254A4BDE1C0133554AEDE70125A3
:10068000474B1E1D0233504AE7E70025444B1E1D11
:1006900002334D4AE1E70125414B1E1D02334A4A10
:1006A000DBE70020FFF7C8FE4A49200009F0E6F921
:1006B00000280FD1236A002B0AD0012B06D1424B10
:1006C0009A6A454903A803F0E5FF41E7FFF7B4FE46
:1006D0003F4BF5E74149200009F0D0F9002844D10B
:1006E000236A012B1AD0022B29D0002B02D0002024
:1006F000FFF7A2FE073000F0A5FD0022384B04F002
:1007000021FB002800D023E7073000F09BFD02000A
:100710000B00344903A803F0BDFF19E7324B1868FA
:100720000022052100F034FC304A314B00F044FC3B
:1007300002000B002B4903A803F0ACFF08E70720D9
:1007400000F080FD06000F00274B186801220521EC
:1007500000F01EFC32003B0000F03EFC02000B00EB
:10076000204903A803F096FFF2E62249200009F091
:1007700085F9002800D0EBE6236A002B07D0012B77
:1007800003D1114B00229A62E2E6FFF755FE104BAF
:10079000F8E703AA2100184805F0FAFDDFE6C04695
:1007A0005420002000E500100CE5001018E50010B2
:1007B00020E500102CE5001038E5001044E500109D
:1007C00058E5001040420F000C0E0020400C0020A5
:1007D000E00D002068E5001074E5001078E50010D9
:1007E00000408FC084E50010440C0020FCA9F1D229
:1007F0004D62E4BF88E5001098E5001070B505F083
:10080000D3FD684C6849206808F002FA23685A68EA
:10081000022002401C1DC021890121430860186884
:10082000C7214140CF200840802149010B43186077
:1008300080239B0123431A600121022000F04EFD1A
:100840000121032000F04AFD0121042000F046FDB3
:10085000052000F02BFED024240620236362636170
:10086000524D5349286808F099FB0321002000F0FD
:1008700035FD0321012000F031FD072000F016FEB8
:10088000062000F013FE40236362082000F00EFEF5
:1008900080235B00A36200220021082000F036FDC7
:1008A000092000F003FE80239B00A36200220021A8
:1008B000092000F02BFD0A2000F0F8FD8023DB006A
:1008C000A362002200210A2000F020FD0B2000F08E
:1008D000EDFD80231B01A362002200210B2000F00C
:1008E00015FD00220321286800F026FB05220121C6
:1008F000304800F0EDF8032201212F4800F0E8F81D
:1009000028680022012100F017FB2C4C2300012253
:100910000821082000F06EFD230001220821092093
:1009200000F068FD2300012208210A2000F062FD8A
:100930002300012208210B2000F05CFD00240BE0C5
:10094000D0252D0640266E610A2001F027FFAE61FA
:100950005A2001F023FF0134092CF1DD002411E0BD
:10096000124D01220121286800F0E6FA0A2001F068
:1009700015FF28680022012100F0DEFA5A2001F05C
:100980000DFF0134092CEBDD0D4808F0C9F80D4BC3
:100990001B78002BFBD00C48FFF764FD094B0022AD
:1009A0001A70F4E7440C002040420F00400C002075
:1009B000A0860100E00D00200C0E002005030010B1
:1009C0008503001054200020C8240020F0B5C6463E
:1009D00000B598B004000F00160098460025109549
:1009E0001C22002111A805F035FB00953C220021B6
:1009F00001A805F02FFB3349200009F0B9F80100E8
:100A0000002407E010A809F07DF82E49002009F025
:100A1000AFF80100002909D00134E4B2012CF1D073
:100A2000022CF2D1684609F06DF8EEE7022C42D8AC
:100A3000002528E02123E55C10A9404609F062F872
:100A40002023E35C002B31D01F49684609F090F861
:100A5000002600280ED00136F6B2F21D9200424464
:100A60001A4908F0E1FF012828D11749002009F0B0
:100A70007FF8EEE72023E35CB34217D00320404227
:100A800015E00135EDB2B5420FD22C0164196400B6
:100A90003C19210010A808F0F1FF0028CAD0731EED
:100AA0009D42EED10420404201E0002568B218B01A
:100AB00080BCB846F0BD01204042F8E70220404229
:100AC000F5E7C046A4E50010A8E50010ACE500106D
:100AD000F8B5CE46474680B50700894690460500E2
:100AE000002409E0286800F0E1FC04CD01239340D4
:100AF000D026360673620134052CF3DD01237A69B2
:100B000093404A46002A2ED0D02212065361012279
:100B100011003B689940D0231B0699611100786849
:100B200081409961072341460B40B9688A4041469C
:100B3000C9071CD5D02109064A610122F9688A40FB
:100B4000990718D5D02109064A61012239698A40DE
:100B50009B0814D0D0231B065A610023BB62C0BC83
:100B6000B946B046F8BDD02212069361CFE7D02136
:100B700009068A61E1E7D02109068A61E5E7D02309
:100B80001B069A61E9E7426901239340D0221206CD
:100B900053617047426901239340D022120693614A
:100BA00070470000F0B5DE4657464E464546E0B574
:100BB00089B001900D0014009946129B9A460023BB
:100BC0004A46137052461370276A666AB81B04F0CF
:100BD000CDF80022C44B04F054F802900391B819E8
:100BE00004F0C4F80022C04B04F04BF804900591C7
:100BF000002D5DD0012362689340D022120653611C
:100C000001235B429B462000FFF7C4FF642001F0F4
:100C1000C5FDA569E369EB180198834200D2E7E0BE
:100C200004F0A4F806900791B04AB14B04F029F8FB
:100C300006000F00280004F099F802000B0003F0F2
:100C4000F9FF02000B003000390003F0FCFF04F054
:100C500033F9029A039B04F014F8049A059B03F0FD
:100C6000E9FFA44AA44B04F00CF8A44AA44B03F0F7
:100C7000E1FF04900591206A04F078F806000F0067
:100C8000049A059B03F0CDFF0022974B03F0F9FF78
:100C900002900391049A059B3000390003F0CAFFCB
:100CA0000022914B03F0EDFF04900591002638E0FF
:100CB000012362689340D0221206936101239B4670
:100CC000A1E7300004F052F8884A8E4B03F0D9FFB8
:100CD000069A079B03F0B7FF04F0EEF8029A039B15
:100CE00003F0CFFF049A059B03F0A4FF04F07EF805
:100CF000450801273B0022689340D0221206904607
:100D000053612800002101F01DFD23689F404346E8
:100D10009F612800002101F015FDA36A5B44A362D6
:100D20000136019B9E4207D253461B78002B03D10C
:100D30004B461B78002BC4D00023524613704A4602
:100D40001370642001F02AFD2000FFF71CFF09B09A
:100D5000F0BCBB46B246A946A046F0BD404604F0F2
:100D600005F8624A624B03F08CFF06000F00280072
:100D700003F0FCFF02000B003000390003F063FFBA
:100D800004F09AF8029A039B03F07BFF049A059BF8
:100D900003F050FF0022544B03F073FF04F026F8D9
:100DA00005000126330022689340D0273F067B616F
:100DB000002101F0C7FC23689E40BE61280000218D
:100DC00001F0C0FCA36A5B44A36201239C46E0449B
:100DD000A569454507D953461B78002B03D14B46DF
:100DE0001B78002BBAD0636A5B089846002518E090
:100DF0000026B046ECE70126330022689340D02756
:100E00003F067B614046002101F09CFC23689E4028
:100E1000BE614046002101F095FCA36A5B44A362D9
:100E20000135A369E26994466344019AD31AAB423F
:100E30000AD953461B78002B52D14B461B78002B06
:100E4000D9D00026B0463DE00026B0463AE0434601
:100E5000E81803F08BFF254A254B03F012FF06002C
:100E60000F00280003F082FF02000B003000390061
:100E700003F0E9FE04F020F8029A039B03F001FF5F
:100E8000049A059B03F0D6FE0022174B03F0F9FEEF
:100E900003F0ACFF05000126330022689340D02701
:100EA0003F067B61002101F04DFC23689E40BE613E
:100EB0002800002101F046FCA36A5B44A3620123E1
:100EC0009C46E044E569454500D835E753461B7824
:100ED000002B00D030E74B461B78002BB7D02BE718
:100EE0000026B046EEE7C0460000E03F182D44540F
:100EF000FB210940666666666666E63F3333333338
:100F00003333D33FFB21194030B587B004000F22A3
:100F10006A44117001230093202108F06BF8172513
:100F20006D440023009301332A002021200008F0A3
:100F30006DF8287807B030BD00B585B06B461973E1
:100F40005A7300230093023303AA202108F052F8B9
:100F500005B000BD30B583B001235A40D2B2D200F3
:100F60006B461A7100236A465371138001248C402A
:100F7000D0252D06AC61023301A90DF031FA6C6168
:100F80006B46187800025B78C01880B203B030BDA1
:100F900010B5FFF7DFFF03F0E9FE044A044B03F04E
:100FA00070FE0022034B03F04EFE10BD66666666BF
:100FB00066660A4000FEAF4070B514001D00044A8A
:100FC000044B03F05EFE22002B0003F033FE70BDE5
:100FD0008CB96B09F9201040F8B504000D00100021
:100FE000190000222E4B03F01CFE2E4A2E4B03F05C
:100FF00048FE00222D4B03F01DFE03F047FF071CA7
:101000002000290003F042FF391C04F096FE041C66
:10101000274904F0D9FE00281CD12649201C04F0E1
:10102000E1FE002816D12449201C04F0D3FE00283C
:1010300014D0201C04F0FEFE204A214B03F021FEB8
:10104000204A214B03F0EDFD03F020FF1F4904F07F
:1010500074FE061C301C04F0EDFEF8BD1C49201C7B
:1010600004F0B2FE00280DD0201C04F0E3FE194A63
:10107000194B03F006FE0022184B03F0D2FD03F0DB
:1010800005FFE3E7201C04F0D5FE154A154B03F0DD
:10109000F8FD0022144B03F0CDFD03F0F7FED5E779
:1010A000000039408B6CE7FBA9F1923F0000F03F54
:1010B0000000164300404E450000E0435C8FC2F53F
:1010C000285C1B4014AE47E17A14504000007A447B
:1010D0000020B644EC51B81E85EB1B4000C05F40B9
:1010E000333333333333154000CCA14070B50600A1
:1010F00001248440D0252D066C626C61012001F032
:101100004DFBAC61F0204000002101F01BFBAC6204
:101110004620002101F016FB6B68F34001241C40BF
:10112000CD204000002101F00DFB200070BD70B506
:101130000300012910D00A263C2001249C40D02520
:101140002D066C62AC61C11701F0FCFAAC62F117BC
:10115000300001F0F7FA70BD40260620EDE770B5CB
:1011600006000C00002505E000213000FFF7DFFF3E
:1011700064100135072D06DCE307F5D501213000A9
:10118000FFF7D5FFF4E770BD70B50500012484407A
:10119000D02636067462B4610820002101F0D2FA2C
:1011A000B4620220002101F0CDFA7368EB40012403
:1011B0001C403C20002101F0C5FA200070BD70B534
:1011C00006000024002505E03000FFF7DDFFA04009
:1011D00005430134072CF7DD280070BD70B505000C
:1011E0004421FFF7BCFF0024FA235B009C4209DA8C
:1011F0000A2001F0D3FA2800FFF7C6FF012801D02A
:101200000134F1E7200070BD70B506000D0000202C
:10121000002410E052080133DBB2072B09D811007B
:1012200041404008C907F5D5742149424840C0B241
:10123000F0E70134E4B2AC4202D2325D0023ECE7C5
:1012400070BD000030B585B00500FFF74FFF0128E5
:1012500034D0CC212800FFF782FF2800FFF7BEFF23
:10126000FA235B0098422DD02800FFF73FFFCC21E6
:101270002800FFF774FFBE212800FFF770FF00244D
:1012800005E02800FFF79BFF01AB18550134082C3F
:10129000F7DD092101A8FFF7B7FF002815D101AB41
:1012A0005878000200B21B78184304F0A1FDF62123
:1012B000890504F058FD04F0BDFD01E0002004495B
:1012C00005B030BD00200349FAE700200249F7E7E6
:1012D00000408FC00070A7C000409FC010B58300C1
:1012E000084A944663441C6840226240C02414406B
:1012F0008022520113431C60C000034B9C46604493
:10130000416010BD04C001400040014080000B4B13
:101310009C46604400290DD00823002A0CD00422EA
:101320001343026853400C221340802252011043A1
:10133000036070470023F0E70022F1E704C001409A
:1013400070B50400D0231B061D68AA000C4BD358AF
:10135000002B0AD0002803D0AD00094BEC5070BD23
:1013600008490D2000F020FBF6E70028F7D0AD007B
:10137000034BE850002203490D2000F0FBF9EEE793
:10138000A01F002015140010072303409B00C00875
:1013900099403C308000014BC150704700400140F3
:1013A000F8B507000C0016001D00FFF7EDFFFB0865
:1013B0009B00ED180720384080008440002E04D0A8
:1013C00080239B011D432C60F8BDC0239B011D435E
:1013D0002C60F9E710B5D0231B061B68002B03D047
:1013E000024BFFF7DDFF10BD014BFAE73041014032
:1013F0000041014070B514001D00FFF7EBFF28000D
:10140000FFF79EFF002C00D170BD01210D2000F0E0
:101410005DF9F9E7F0B5D6464F464646C0B5D0234C
:101420001B061F68BA001D4BD3589846002F03D0E7
:101430001B4B9946002623E01A4B9946FAE72409EC
:101440000135002C1BD033000833AB4217D90F23D2
:101450001A00224092462342F1D0BB00124A9A5809
:101460000123AB401342EAD151462800FFF78CFF1D
:101470004346002BE3D051462800C047DFE708363B
:101480001D2E06D8F30808339B004A469C583500A9
:10149000D7E7E0BCBA46B146A846F0BDA01F002081
:1014A00030410140004101404025002010B501239A
:1014B0008340D0221206936293610521FFF70EFF4D
:1014C00010BD0000034B1B6802201840431E9841CA
:1014D000C0B2704700C00640EFF3108072B6034BF5
:1014E0001B68002BFBD0BFF35F8F70472C0100D02F
:1014F000BFF35F8F024B00221A6080F310887047A1
:101500002C0100D0F8B506000C001500FFF7E4FF31
:10151000E308F718F15C07222240012393400B42B5
:1015200005D1DBB20B433B70FFF7E2FFF8BD2100B2
:10153000280002F003F8F0B583B006000191140012
:101540001F00FFF7C9FF00E00134BC420CD8E308DC
:10155000F518F35C0721214001228A401A42F3D199
:10156000D2B21A432A7001E001246442FFF7C0FF9F
:10157000002C02DB200003B0F0BD019B002BF9D052
:10158000089801F0DBFF0000002307E0054A9A18E5
:101590009200BFF35F8F0021116001331F2BF5D93B
:1015A0007047C04640000034054A1078431CDBB247
:1015B0001370172B02D9130010221A707047C046FF
:1015C000380E002000B583B00100044B00931F23A8
:1015D00018220348FFF7AFFF03B000BDB0E50010CD
:1015E000B01F0020074B9B68103080001950BFF3DC
:1015F0005F8FBFF35F8F044B0021196082F3108867
:101600007047C04600ED00E0240100D010B5091A73
:10161000081F0A4B9C466144094A914208D8C307F7
:1016200006D440104005400D064B184380B210BD53
:10163000054B064AA321064801F0E6FEFC07000020
:10164000FE0F000000E0FFFFCCE5001058E800109E
:10165000FCE5001010B5091A04394C08090B08D133
:101660004905490D064A11430180064B2343438037
:1016700010BD054B054AAB21054801F0C5FEC0462B
:1016800000F0FFFF00F8FFFF58E600102CE8001004
:10169000FCE5001001238340034A10681840431EF4
:1016A0009841C0B27047C04600E100E0002904D074
:1016B000034B1860034B18607047034B1860FBE73F
:1016C00080E200E000E100E080E100E010B50123ED
:1016D00083401800FFF7EAFF10BD0000012383409C
:1016E000014A13607047C04600E200E0024B9B686D
:1016F00010308000C058704700ED00E010B5FFF7D3
:10170000F5FF002805D0054BC01A2F2803D801206B
:1017100010BD0020FCE70020FAE7C0463C0E002088
:1017200070B504000D00EFF3108672B60C4B1B6809
:10173000002BFBD0BFF35F8F2000FFF7D7FF094BD3
:10174000984201D0A84205D1320029002000FFF7BD
:1017500049FF70BD044B054A8621054801F054FE3F
:10176000240100D0CD01001068E600108CE80010C4
:10177000FCE50010F0B5DE4657464E464546E0B55E
:1017800089B0814601911500EFF3108A72B6744B4F
:101790001B68002BFBD0BFF35F8F724B0027DF5716
:1017A000002F40DB7C00E419A4006F4824180622B7
:1017B000A2566C4B1A706D4B9A684B4610339B00C7
:1017C000D35898461E001B1A2F2B38D9684B9845C2
:1017D0002FD105AE674B33807B009B46D819800024
:1017E000614B9846404402306349FFF70FFF708019
:1017F000624BB380FF23B371F571019B07935F4484
:10180000BF0047440ECE0EC701231C43A0465246DC
:1018100041464846FFF7E6FE09B0F0BCBB46B2467B
:10182000A946A046F0BD564B564AD721564801F06E
:10183000EBFD564B534ADE21534801F0E5FDC04312
:1018400040440C2102F0A6FF002912D101239E433F
:10185000B34633000026DA79AA4211D90621595637
:1018600000290CDB4A00521892001E003E4B9B18C8
:10187000F1E7474B434AEA21434801F0C5FD1E000A
:10188000002E3AD005AB434A1A80813A5A8006238B
:10189000F3560293002B17DA3F4805AB9B4698801E
:1018A000029A9A71DD71019A0792301D2100FFF7AB
:1018B000ADFEB080B7717B00DB199B002A4FFF188B
:1018C0005B4607CB07C7A2E77800C0198000264B0C
:1018D000C0180430321DB388D90A1C2907D15B0512
:1018E0005915023149005118FFF790FED5E72B4BEF
:1018F0002B4AB121244801F087FD05AE1D4B3380F2
:101900007B000293D8198000174A90460200424497
:101910000392901C1849FFF779FE7080039A101DFE
:101920005946FFF773FEB0801E4B5A464146521A85
:10193000524153431B0DB371F571019A0792029BFB
:101940009C466744BF0047440ECE0EC7114B5A4613
:101950001380813B538001231C43A04657E7C046B8
:10196000240100D0852800203C0E002000ED00E07E
:10197000CD01001000A1FFFF6C0E002001BDFFFF94
:10198000A0E6001074E80010FCE50010C8E60010A6
:10199000F0E600100148000001BD000064E70010FF
:1019A00064E80010AAAA0000F0B5CE46474680B50C
:1019B00083B006000D00EFF3108872B6564B1B681B
:1019C000002BFBD0BFF35F8F544B9A683400103468
:1019D000A300D758524B9F4207D0AF4200D198E0A6
:1019E0000197504BFB1A2F2B09D942463900300082
:1019F000FFF7F8FD03B0C0BCB946B046F0BD3000FB
:101A0000FFF748FE814600213000FFF75FFEBFF37D
:101A10005F8FEFF30581002901D08C4211D10123A2
:101A2000019C9C430022A368AB4212D00622A2561E
:101A3000002A0DDB53009B189B002200394CE41850
:101A4000F1E73621384B394AFF31394801F0DCFCE7
:101A50002200AB4256D106256557002D38DB6B00BE
:101A60005B199A002F4B9B189A68A260DA79E27191
:101A700006229A56A2719B795BB2002B0FDA2D4891
:101A8000A0806B005B199B00264AD3182A4A117864
:101A90009971157049463000FFF718FEA5E7201D23
:101AA0006B005B199B001F4A9B181A1D9B88D90A63
:101AB0001C2907D15B055B15023359005118FFF74C
:101AC000A5FDDDE71D4B1E4AB121194801F09CFC24
:101AD000002912D1002A0ED0FF239371194B938055
:101AE000154A1378A371184B0E49641A6441634375
:101AF0001B0D1370CEE70A4FF2E7201D1349FFF7C5
:101B0000A9FDC7E76A21124B084AFF31084801F0D6
:101B10007BFC034F69E7C046240100D000ED00E0E4
:101B2000CD0100103C0E00207CE7001044E80010BE
:101B3000FCE5001001BD00008528002064E70010CE
:101B400064E8001001BDFFFFAAAA0000760E002085
:101B5000B0E7001070B5012101432E4BCB1A2F2B9B
:101B600028D8EFF30583002B2BD0EFF3108C72B63F
:101B7000294A1268002AFBD0BFF35F8F274A04006E
:101B8000244D641B64416243120D54B2244A92688E
:101B90009B00D2588A421BD00022032A32D853001D
:101BA0009B189B001B49CB189B795BB2A3421FD0AB
:101BB0000132F2E7C7211B4B1B4A49001B4801F0C9
:101BC00023FC92211A4B184AFF31184801F01CFCE3
:101BD000134A92681749D150174B1A7882711C70BA
:101BE000BFF35F8F0C4B00221A608CF3108870BD1E
:101BF0000D005300991889006918FF268E710F4A4D
:101C00008A80E9E7D1210E4B074A4900074801F0D5
:101C1000FBFBC0463C0E0020240100D0AAAA000015
:101C200000ED00E0B8E7001010E80010FCE500103F
:101C3000E0E70010CD0100108528002001BDFFFF66
:101C4000ECE700100022044B02E0044902C3013219
:101C5000072AFAD97047C04600E400E080808080FF
:101C600000B583B00100064B009305230022054810
:101C7000FFF761FC002801DB1F23181A03B000BD29
:101C8000F4E700108A280020024B9C46614489003A
:101C9000016070474000003410B50400FFF784FC79
:101CA00001002000FFF7F0FFFF232371BFF35F8FD8
:101CB00010BD10B50400FFF777FC01002000FFF70E
:101CC000E3FFFF23237100236371BFF35F8F10BD18
:101CD000034B9C46614489000160BFF35F8F7047EE
:101CE0004000003410B504000120FFF76BFC010038
:101CF0002000FFF7EDFF10BD70B505000C000800D7
:101D000000F000FF0949200000F040FEFFF74CFC06
:101D1000074B9C466044800068602C75D0231B06EE
:101D20001B786B75A400034BE55070BD3D2000107F
:101D300040000034302500200A4B1A68EFF3108170
:101D400072B61368002BFCD0BFF35F8F054B1B6886
:101D5000BFF35F8F00221A6081F3108840BF00201C
:101D6000002170475427002010B5002922D00368B5
:101D70001B7B99421ED8174B9C466144090183681E
:101D80009C4661440C684968002A19D003681B7B93
:101D90009A4215D883680F488446624412019A1803
:101DA00010685368020001208B4201D80ED0002039
:101DB000C0B210BD084B094A3C21094801F024FB80
:101DC000054B064A3C21064801F01EFBA242EFD813
:101DD000EDE7C046FFFFFF0F74EA0010F4EC0010BF
:101DE00020EA001010B500291ED0037B99421BD8B1
:101DF0004B005B18033B0468A4466344002919D0D8
:101E0000002A1DD0914221D0002A25D0047BA24275
:101E100022D804685000801803382018817019787F
:101E200000291FD11A7010BD104B114A68211148AA
:101E300001F0EAFA104B114A6F310E4801F0E4FA52
:101E40000F4B0E4A70210B4801F0DEFA0D4B0B4A86
:101E50007121084801F0D8FA044B054A6821054869
:101E600001F0D2FA41701A70DDE7C04698EA00101E
:101E700060ED0010B4EA00101CEB00103CED001007
:101E800028EB001034EB001070B506000D001400B4
:101E9000002914D0002A14D080687368984700285D
:101EA00006D0220029003000FFF79CFF280007E041
:101EB0002A0021003000FFF795FF200000E010000D
:101EC00070BD0800FCE70000F0B583B0050000928B
:101ED00001930AAB1C780BAB1F78002C26D003684B
:101EE0005A7B944207D10123002B19D1002C3BD1FE
:101EF000200003B0F0BD002C0CD01A7B944209D80E
:101F00001A6863001B19033BD3189B78002BEBD096
:101F10000123E9E73E4B3F4A68213F4801F074FA4C
:101F20003E4B3F4A67213F4801F06EFA03689C7BB5
:101F3000002CDBD012D01A7B94420FD86200121909
:101F4000033A19688C46624451789973002900D18C
:101F5000D9730023937053701370C7E72C4B2D4A2D
:101F600068212D4801F050FA002C3AD02B681B7BD9
:101F70009C4236D82C4BE3181B01AA689446634454
:101F8000009A1A60019A5A60089A9A60099ADA606F
:101F90002E68002C2BD030D0337B9C422DD8630090
:101FA0001B19033B32689446634400229A705A70AE
:101FB0001A70717B22003000FFF766FF7073844255
:101FC00000D095E7287D009A019B00F027FD061EB2
:101FD00001D0002F17D00C9B002B00D188E71E707A
:101FE00086E7124B124A3C210E4801F00DFA114BC4
:101FF000114AA521084801F007FA054B054A682156
:10200000054801F001FA2868210000F03FFFE2E7EF
:1020100098EA001060ED0010B4EA00104CEB0010DC
:102020006CED001020EA0010FFFFFF0F74EA0010B3
:10203000F4EC00101CEA001050ED0010F0B5DE4684
:1020400057464E464546E0B58BB0099000230893AD
:102050008200B54BD658370052E0B44BB44A3F210A
:10206000B44801F0D1F9B44BB44A3C21B44801F072
:10207000CBF9002901D1002869D10021404600F0A8
:10208000FBFEA04219D12A686B6806920793AB68E1
:102090009846EB689A464346002B14D0002C18D083
:1020A0003B681B7B9C4214D8631EFA68D35C089380
:1020B0001B0218433861002015E0A24BA24A8E2172
:1020C0009F4801F0A1F9A14B9F4A92219C4801F041
:1020D0009BF9994B9E4A4121994801F095F90023BB
:1020E0009A46984600207B68BFF35F8F00221A60F3
:1020F00086F310884346002B32D1002800D10CE132
:1021000000F000FC02000B1EA7DB0020002106905F
:1021100007917868EFF3108672B601680029FCD049
:10212000BFF35F8F396888464C7B002CD7D09AD09C
:10213000097B8C4297D8874965182D01B9688C4670
:10214000654428686968801A9941002991DD2A68E8
:102150006B68099800F062FC00239A469846C2E733
:10216000089B1B022343994651461800C0470500AF
:102170000E007A68EFF3108B72B6136859424B4128
:10218000D9B2002BF9D1BFF35F8F002E1EDB002EDA
:1021900046DD3B69002B47D04B456DD100F0B2FBCB
:1021A00002000B1E6EDB52197341002B70DB002BFB
:1021B00072DB002104910131039102945146019197
:1021C000414600913800FFF77FFE4CE03B69002B51
:1021D000DDD04B4514D1069A079B521BB341002B0F
:1021E00014DB002B16DB00210491013103910294D2
:1021F00051460191414600913800FFF765FE32E0FB
:10220000554B514AA1214E4801F0FEF8012252429D
:10221000524BE6E7454B464A3F21464801F0F4F869
:10222000002E01D1002DB4D13B68002C50D05A7B38
:10223000944237D1012100294AD1DA7B002A4DD1BD
:102240009A7B002A03D1DA7B002A5AD19C73DC7373
:10225000002C5CD03B681B7B9C4258D8FA68013C40
:10226000135D0133135500233B617A68BFF35F8F21
:1022700013608BF3108843E7374B334AA42130486F
:1022800001F0C2F8294B2A4A3F212A4801F0BCF844
:1022900001225242314B8AE7244B254A3F212548EF
:1022A00001F0B2F8002C0DD01A7B94420AD86200DB
:1022B0001219033A1868844662449278002ABAD008
:1022C0000121B8E7264B274A6821274801F09CF8EE
:1022D000264B274AF621244801F096F8002A0AD016
:1022E000197B8A4207D851008A18033A19688C462C
:1022F00062445470A4E71A4B1A4A68211A4801F044
:1023000083F81C4B1A4AFB21174801F07DF80A4B51
:102310000F4A41210A4801F077F80BB0F0BCBB46E8
:10232000B246A946A046F0BD3025002018E90010AD
:10233000C0EC001034E9001074EA0010F4EC001056
:1023400020EA001074EB0010D8EC00108CEB0010A9
:1023500018ED0010FFFFFF0F98EB0010FFFFFF7F4D
:1023600098EA001060ED0010B4EA0010D4EB001001
:102370002CED0010F8EB001010B50C4B5B68002B37
:1023800004D00A210A48FFF77FFC10BD074C230048
:10239000084A1021206800F07FFC032000F0A6FA14
:1023A00003212000FFF7A8FCEBE7C046840E0020C5
:1023B00054270020691D001010B5064B5B68002BE8
:1023C00001D0044810BD044B044A5E21044801F0CA
:1023D0001BF8C046840E00200CEC001000ED00102D
:1023E00020EA0010F0B5DE4657464E464546E0B5B9
:1023F0008BB0804616001F00149B9A46159B994689
:1024000016AB1B789B461F2302AA94466344002206
:102410001A702BE0002809D042461268127B9042C5
:1024200004D8421E4146C9688A5C41E0404B414A9B
:102430004121414800F0E8FF07984CE0361BAF41CE
:10244000002F07DB002F11DA3C4B3D4A3F213D486E
:1024500000F0DAFF012676423B4FF3E7374B384A6C
:102460003F21384800F0D0FF002F4FDB43465A6829
:10247000EFF3108472B6136859424B41D9B20791F9
:10248000002BF8D1BFF35F8F1F3302AA9446634439
:1024900004930023039302934B4601935346009306
:1024A00032003B004046FFF70FFD031EB2D1020091
:1024B00041464968BFF35F8F00250D6084F31088A3
:1024C000002B29D01F2302A98C4663441B78002BC4
:1024D000B2D112021043002B20D05B46002B1DD03E
:1024E0004946D04704000D0003000B431DD00029CE
:1024F000A4DB00F007FA06000F1EAFDB36196F41B0
:10250000002FB1DA012676420F4FADE70B4B0C4A94
:102510003F210C4800F078FF012040420BB0F0BC96
:10252000BB46B246A946A046F0BD0798F6E7C046AE
:1025300074EA001018ED001020EA001018E90010ED
:10254000C0EC001034E90010FFFFFF7FF8B5040075
:10255000002900D162E04268EFF3108572B613687B
:1025600058424341D8B2002BF9D1BFF35F8FCBB2B1
:102570002268567BB3421BD10120002848D0206935
:1025800088422BD0090AC9B2002B2ED02068007BCC
:1025900083422AD8581EE668305C88422BD000203F
:1025A0006368BFF35F8F00221A6085F31088F8BD5F
:1025B000002B0DD0167BB3420AD85E00F618033EFE
:1025C0001768BC466644B678002ED6D00120D4E702
:1025D000134B144A6821144800F016FF2C21134BAA
:1025E000134AFF31134800F00FFF134B134A4121E8
:1025F000104800F009FF1900100000F047FC002807
:10260000CED199210E4B0A4A49000A4800F0FCFE3F
:1026100023698B42C4D100232361C1E70020C6E7B0
:1026200098EA001060ED0010B4EA001030EC0010E1
:10263000A8EC001020EA001074EA001018ED001059
:1026400054EC0010407D7047F0B587B006000F00D5
:10265000EFF30583002B1FD106246442E517A4196C
:102660007D418D4202D803D1844201D90024002546
:10267000002D14DB0494059500F044F902000B1EB4
:1026800013DBA41A9D41002D17DC14D03000390053
:1026900000F044F907B0F0BD234800F04FFF234B92
:1026A000234A3F21234800F0AFFE204B204A3F2120
:1026B000204800F0A9FE002CE8D0FFF77DFE0023A3
:1026C000029301931C4B0093049A059BFFF78AFE2B
:1026D000002818DADAE7002300E00023002BD5D128
:1026E000164B1A68EFF3108172B61368002BFCD0FA
:1026F000BFF35F8F114B1B68BFF35F8F00221A601F
:1027000081F3108820BF0499059A0D4B5B6A9A42A9
:10271000E3D80B48806A884203D29A42DBD0012377
:10272000DCE70123DAE7C04658EC001018E9001096
:10273000C0EC001034E90010391D001054270020AF
:102740000040054070B504000D0000F0DBF8020009
:102750000B1E0ADB200029008018594100290ADBE2
:1027600000290CDBFFF770FF70BD084B084A3F21C2
:10277000084800F049FE012040420749F0E7034BBA
:10278000034A3F21034800F03FFEC04618E900100D
:10279000C0EC001034E90010FFFFFF7F10B5FA22F3
:1027A00092000023002103F0A1FAFFF7CBFF10BD38
:1027B00070B584B005000C00EFF30583002B1ED12B
:1027C000FFF7FAFD002302930193224B00932A00A6
:1027D0002300FFF707FE061E23DD20BFFFF7ECFDF9
:1027E0003100FFF7B3FE1C4B5B6A9C422DD81A4A9E
:1027F000926AAA422CD29C4225D0012026E0164B98
:102800005B6A994209D8144A926A824207D2994275
:1028100001D001201AE0002018E0002016E001207D
:1028200014E00D4B5B6A9C4209D80B4A926AAA429B
:1028300007D29C4201D0012008E0002006E00020E1
:1028400004E0012002E0002000E0002004B070BDA0
:102850000120FBE7391D00100040054070B5EFF383
:1028600005801038EFF3108C72B61A4B1B68002BE2
:10287000FBD0BFF35F8F01221300834016494B63E7
:1028800016490B60164909780C00C440224214D046
:10289000114A546A8200134D5259944206D3820061
:1028A000114C125999430E4B197007E00A4A031D47
:1028B0009B0099589950002200E00022BFF35F8FDF
:1028C000044B002119608CF31088002A00D0904737
:1028D00070BDC046280100D0004005403C70054056
:1028E0008928002060270020901E002010B50100DC
:1028F000024A0348FEF706FE10BDC04684ED0010F4
:1029000084280020044B5B6A034A906A1900536ACA
:102910009942F9D17047C04600400540084B5B6AB8
:1029200001E0074B5B6A8B42FBD301E0044B5B6A1F
:102930008B4203D1024B9B6A8342F7D37047C04658
:102940000040054070B504000D00FFF7DBFF0200FA
:102950000B0020002900801859418B4202D804D175
:10296000824202D901204042C117002902DBFFF751
:10297000D5FF70BD024B034A3F21034800F044FDE0
:1029800018E9001048EE001034E9001070B504009A
:102990000D00EFF3108672B61B4B1B68002BFBD0AB
:1029A000BFF35F8F002D1CD02000FEF79FFE174B5A
:1029B00083420BD019002000FEF7B2FE0121200057
:1029C000FEF784FE0123A340114A1360A400114BBB
:1029D000E550BFF35F8F0C4B00221A6086F310881E
:1029E00070BDA2000B4B0021D1500122A2400A4928
:1029F0000B7893430B7005492000FEF7D5FF0021AB
:102A00002000FEF763FEE4E7280100D05D280010F7
:102A100038600540901E002089280020F0B5DE4671
:102A200000B584B00400150001921E000293FFF768
:102A300069FF03958E4202D84ED185424CD9EFF3FF
:102A4000108B72B6274B1B68002BFBD0BFF35F8F38
:102A5000254A17780125A540EBB23B431370234B61
:102A60005D63221D92000199D150A2002049029875
:102A700050501B6A2B4212D11C4B1B6C2B4208D0AE
:102A80000020BFF35F8F174B00221A608BF3108872
:102A900023E0184B184AC521184800F0B5FCFFF791
:102AA00031FF8E4214D802D1039B834210D80E4BC3
:102AB0001B78BB420ED00D4B1D625D631F2004408E
:102AC0000123A3400E4A1360074B1F701E38D8E73E
:102AD0000020D6E70120D4E7012004B080BCBB462B
:102AE000F0BDC046280100D08928002000400540E4
:102AF00060270020A8ED00102CEE0010CCED001097
:102B000080E200E0EFF3108C72B60B4B1B68002BD9
:102B1000FBD0BFF35F8F01238340084A136208494B
:102B20000A789A430A70BFF35F8F034B00221A6042
:102B30008CF310887047C046280100D00040054043
:102B40008928002010B500291ED0037B99421BD88C
:102B50004B005B18033B0468A4466344002919D06A
:102B6000002A1DD0914221D0002A25D0047BA24208
:102B700022D8046850008018033820188170197812
:102B800000291FD11A7010BD104B114A682111483D
:102B900000F03AFC104B114A6F310E4800F034FC43
:102BA0000F4B0E4A70210B4800F02EFC0D4B0B4AC8
:102BB0007121084800F028FC044B054A68210548AB
:102BC00000F022FC41701A70DDE7C04698EA001060
:102BD00068EF0010B4EA00101CEB001054EF001076
:102BE00028EB001034EB001070B506000D00140047
:102BF000002914D0002A14D08068736898470028F0
:102C000006D0220029003000FFF79CFF280007E0D3
:102C10002A0021003000FFF795FF200000E010009F
:102C200070BD0800FCE7000010B5002343730133BA
:102C30008373037BC3730123027B9A4214D9002B55
:102C40000CD0027B934209D85A00D218033A01688B
:102C50008C4662440133DBB25370EDE70B4B0C4AF8
:102C600068210C4800F0D0FB002A09D0924207D816
:102C7000016853009A18033A8A180023537010BD54
:102C8000024B034A6821034800F0BEFB98EA00109B
:102C900068EF0010B4EA001010B501734260836061
:102CA000FFF7C2FF10BD000070B50400081E00D180
:102CB00070BD002934D0237B994231D84B005B187A
:102CC000033B2268944663445A78002AF0D02DD002
:102CD000237B9A422AD853009B18033B21688C46D9
:102CE00063445D7800215970002825D0237B9842E9
:102CF00022D843001B18033B21688C466344002103
:102D0000597001002000FFF76FFF06002900200026
:102D1000FFF7CAFF020031002000FFF765FFC7E799
:102D2000084B094A6821094800F06EFB054B064A2A
:102D30006821064800F068FB024B034A68210348FB
:102D400000F062FB98EA001068EF0010B4EA00108F
:102D500070B505000C00160000292FD034D0037B7D
:102D6000994231D84B005B18033B02689446634498
:102D70005A78002A2ED19A78002A31D11978FFF793
:102D800093FF0300002E0AD0EA7B002A2ED1AA7BF3
:102D9000002A03D1EA7B002A3BD1AC73EC73002BF1
:102DA0003DD1002C4FD02B7B9C424CD82B6861002E
:102DB0000C19033C1C190023637070BD254B264A77
:102DC0003821264800F020FB254B264A682126485A
:102DD00000F01AFB254B204A3A21204800F014FB52
:102DE000234B1D4A3B211D4800F00EFB002A0AD050
:102DF000297B8A4207D851008A18033A29688C46F1
:102E000062445470C3E7164B164A6821164800F016
:102E1000FBFA184B104A4221104800F0F5FA002B3B
:102E20000BD02A7B934208D843001B18033B2A6827
:102E30009446634400229A70B3E7094B094A68211B
:102E4000094800F0E1FA064B064A6821064800F0FE
:102E5000DBFAC04660EE001040EF001068EE001094
:102E600098EA001068EF0010B4EA0010BCEE001001
:102E7000E4EE0010F8EB001070B504000A00457B8A
:102E80002900FFF765FF6073280070BD70B504006E
:102E9000002967D0437B8B420ED0002911D0037BE1
:102EA00099420ED84B005B18033B0268D018837818
:102EB000002B0CD1002056E00121FFF7DDFF01209F
:102EC00051E0294B294A6821294800F09DFA002B3E
:102ED00020D0227B93421DD85A00D318033B22688E
:102EE000D2182568EB5C8B421AD0002B1BD0227BBA
:102EF000934218D85A00D318033B2268D21853784B
:102F00008B4216D0002BF0D11A4B1B4A6B211B4869
:102F100000F07AFA144B154A6821154800F074FA4B
:102F20004378137007E0104B104A6821104800F0F6
:102F30006BFA4378537000238370437001222000A2
:102F4000FFF706FF0200617B814205D02000FFF7FA
:102F50004BFE6073012006E0094B074A71210748C8
:102F600000F052FA002070BD98EA001068EF0010DF
:102F7000B4EA0010ECE7001028EF001068EE001033
:102F800008EF0010F8B5DE4657464E464546E0B518
:102F900005000F0092460A9A934250D31A0E9146AA
:102FA0001E020A9A00233000494601F031FC804697
:102FB0006C006419A400304B9C46644463688342EF
:102FC00000D260602B1FDBB29B46012B3DD9C02392
:102FD0009B012343802212011A60AB00274A9958B3
:102FE000002907D0506901F0D5FB431C5800C018D8
:102FF0000338FDD253465A0123685A40E0231A4051
:1030000080235B0123431A605A46012A28D9802372
:103010009B012343802212011A60434663604246AB
:1030200000233000494601F0F3FBAD00134B58512B
:103030000120F0BCBB46B246A946A046F8BD104BE5
:10304000104A3321104800F0DFF9012FBFD1C0230F
:103050009B01234303221A60A368DB07FCD5C9E761
:103060002168794003220A401A60A2680123BB400C
:103070001342FAD0CBE7C04600800040B41F0020C6
:1030800074EF0010E8EF001088EF001030B583B047
:103090000C2000F011F9FEF715FA00280DD00023DE
:1030A00004E099002D4A2E4888500133092BF8D9A5
:1030B0002A4B2C4A5A6203B030BD2B4B00229A6730
:1030C00000F06CF9294B01221A60274B5B6C012B35
:1030D000FBD1274B03221A60234B9B6B012BFBD1A7
:1030E000013300930433234A0121234800F054F8AC
:1030F00005230093214A0121214800F04DF8214B7E
:103100000093002202210420FFF73CFF1E4D009592
:103110002B00002201210520FFF734FF104C009402
:103120002300002200210720FFF72CFF009423003A
:10313000002200210820FFF725FF0A4B00932300FF
:10314000002200210920FFF71DFF00952B0000221F
:1031500000210620FFF716FFADE7C046B41F002090
:10316000006CDC021BB70000008000403CB0004057
:1031700030B00040002F685900800240008C864724
:1031800000C00240001BB700405973078000014B8C
:10319000C0587047B41F0020F0B5C64600B5040003
:1031A0000E0017001D00374801F0F4FA8046364B38
:1031B000FA18364B9A4239D80100380001F0EAFA81
:1031C0000200103A98235B009A4235D86B1E062BFA
:1031D00038D8069B013B062B34D83F09474537D3E7
:1031E0002D04069B1A0315432368002B36DB284B5E
:1031F0009C4244D080225201264B1A60264B1A6012
:10320000264B9B6811009943FAD12660A060231DCC
:10321000C02292011A43212313602368002BFCDA99
:10322000E5600823136080BCB846F0BD1C4B1D4A06
:1032300011211D4800F0E8F81C4B1A4A19211A48C0
:1032400000F0E2F81A4B174A1C21174800F0DCF88E
:10325000184B144A2321144800F0D6F822683F2363
:103260001340B342C3D1A3681B051B0D8342BED1DB
:10327000E368EE22D2021340AB42B8D1D3E78022FA
:103280009201B9E7001BB70080E84BD380F8A93260
:1032900000C0024000E0004000F0004000C00040DC
:1032A000F8EF001038F1001058F00010B4F00010E2
:1032B000D0F000101CF1001080239B000343014A52
:1032C000D362704700800540024B1A68024B5A6077
:1032D0007047C046C02400200080054010B50200A1
:1032E000164B8020C0051860154B16481860002941
:1032F0000AD0154BE021C9041960002A09D1124BEC
:10330000802212061A6010BD0C4BE021C90419601E
:10331000F3E753019B1A9800801800010B4B1860CB
:1033200080235B04984202D3084B094A1A60FFF7D6
:10333000CBFF054B8022D2051A60E4E700B00540C0
:1033400008200140FCFF010000A00540C02400202F
:10335000FFFFFF0010B5030010000C4A8024E405B5
:103360001460002B0DD001221343094A094CD4618B
:10337000094C5C401462516293620021FFF7AEFF7A
:1033800010BD034B0022DA61F7E7C04600B00540EC
:1033900000800540D3C007B02D3FF84F064BAA224E
:1033A00012011A602F22DA60044B054A1A60024BA0
:1033B0005B68002BFBDA704700400240006002406F
:1033C00000B0FA0000BEFDE703000A4A1268002AB6
:1033D00008D0084A1068C318074A9A4206D3054A1B
:1033E00013607047034A05491160F2E7012040422B
:1033F000F7E7C0465C200020000004208C28002055
:1034000010B5FFF7DFFF000010B582B00C00190007
:10341000002A0CD0084B002A0BD001920093230005
:103420000200064802F0B4FF0120FFF7CBFF044B77
:10343000F1E7034AF1E7C04644F1001054F10010EF
:1034400050F1001070B52B4B2B4A1A602B4B2C4AB5
:103450001A602C4B9A682A4B9343FAD12A4C01E00C
:1034600008CC9847294B9C42FAD3FFF70FFE234B19
:10347000274A1A60234B9B68DB43DB01FAD1254BBB
:1034800040229A675A671A67DA66234C09E0234B91
:10349000234A87212348FFF7B7FF2000FEF7FCFBF4
:1034A0000834214B9C4209D22368002BF5D0012B14
:1034B000EDD12000FEF7FDFB0834F2E71B4CA168BC
:1034C0001B4DC022280002F0CBFDA560EFF3058361
:1034D000002B00D000BEFEF757F8FEF7B3FBFEF757
:1034E0004BFF144C01E008CC9847134B9C42FAD395
:1034F00070BDC04600E00040BFCDFBFE00F00040C4
:10350000FE7F3C0000C00040D8180020E8180020D2
:10351000FFFFFF0100F00140C818002084F10010F7
:1035200018F20010A4F10010D818002000ED00E0FF
:1035300000000020E8180020F01800200FB400B5AB
:1035400083B0084802F0F4FE049B002B07D005A9C5
:103550000191180002F0FCFE034802F0E9FE012090
:10356000FFF730FF04F2001014F200109A4200D26C
:1035700088547047704710B5002802D00B6849681E
:10358000984710BD0100002007E083001B185B0076
:10359000501C08601078C01830380A681378303B27
:1035A000DBB2092BF1D97047F0B5DE4657464E46DF
:1035B0004546E0B583B093461F000C9B9A460D9C90
:1035C0000E9B99460F9B9B0703D0B8460F00060041
:1035D00022E00192A34688464E46B9460700B4420F
:1035E00007D2551C4B4641462020B84701342A00DB
:1035F000F5E73D004F465C46019B9B46B14646467B
:10360000B84637002E0007E0013C551C5346185DB4
:1036100043463900B0472A00002CF5D135003E0062
:1036200047460F9B9B0707D4100003B0F0BCBB4676
:10363000B246A946A046F0BDB0464E46B9462F0058
:103640005D46531BB342EFD2541C4B4641462020EB
:10365000B8472200F5E7F0B5CE46474680B585B0BD
:10366000944698460C9D0D9C0EAB1B789946109A7B
:10367000119B129EB7071CD4002B0CD0F7070AD55C
:103680004F46002F02D10C37374204D0013B02E0F5
:1036900030272F550134944201D21F2CF8D9F70757
:1036A00007D59C4205D21F2C03D830272F55013453
:1036B000F5E7F70615D5770505D4002C03D094421D
:1036C00024D09C4222D00F9A102A2BD00F9A102A75
:1036D00030D00F9A022A35D01F2C02D830222A551A
:1036E00001341F2C05D84A46002A31D02D222A55F4
:1036F0000134039602930194009543466246FFF716
:1037000053FF05B0C0BCB946B046F0BD621E012CE7
:1037100006D00F9F102F01D01400D4E7023CD2E74F
:103720001400D0E7B206D1D41F2CCFD878222A5566
:103730000134D1E7B206CCD51F2CCAD858222A555D
:103740000134C9E71F2CC7D860322A550134C3E7BA
:10375000720703D52B222A550134CAE73207C8D590
:1037600020222A550134C4E7F0B5DE4657464E46BE
:103770004546E0B593B081468A46089209931CAB52
:1037800010CB1B789B461E9D219B9846002C03D195
:10379000102342469A4390468023DB0046461E4053
:1037A00042461A4212D0002C22D000260EE03033BE
:1037B000D9B2771C0AAB99552900200000F0EAFF26
:1037C000AC4216D31F2F14D83E000400290020005D
:1037D00000F0E0FFCBB2092BE9D94246920605D5AD
:1037E0004121C918C9B20A39C9B2E2E76121F8E733
:1037F000270043460693209B05931F9B0493039544
:103800005B46029301970AAB0093099B089A5146C5
:103810004846FFF720FF13B0F0BCBB46B246A946AE
:10382000A046F0BDF0B5DE4657464E464546E0B5EB
:1038300095B0089009910A920B931E9E1F9C20AB95
:103840001B789B46229B9946239D269B9A463300D4
:10385000234303D1103352469A4392468023DB0020
:1038600057461F4052461A4219D0330023432DD0E9
:10387000002714E03033DAB27B1C98460CABDA55E3
:103880004A462B003000210000F0C2FFA5421FD89D
:1038900019D043461F2B1BD8474606000C004A464A
:1038A0002B003000210000F0B3FFD3B2092BE1D987
:1038B0005246920605D54122D218D2B20A3AD2B265
:1038C000DAE76122F8E7B145E3D901E00023984641
:1038D00053460693259B0593249B04934B460393E1
:1038E0005B460293434601930CAB00930B9B0A9AF1
:1038F00009990898FFF7AFFE15B0F0BCBB46B24679
:10390000A946A046F0BD0000F0B5DE4657464E463B
:103910004546E0B591B083468A460C9298461A9C7B
:1039200008941B9D099522002B002000290001F01E
:103930000EFA002800D0E5E001225242D74B2000C9
:10394000290001F0FFF9002800D0DBE001225242FB
:10395000D34B2000290001F0DFF9002800D0D1E08E
:1039600000220023089E3000099D290001F0D4F9AF
:10397000002800D0DDE0089809990690079180237F
:10398000DB001E9A1A400D921E9A1A4201D106239C
:103990001C930698079904000D000A0006000243D4
:1039A00000D1D1E0080D4005400DBE4CA446604456
:1039B0000A03120BBC4B13431F0001F0DBF9BB4A97
:1039C000BB4B01F05EF9BB4ABB4B01F033F904007D
:1039D0000D000022B94B3000390001F022F9B84A3D
:1039E000B84B01F04EF902000B002000290001F055
:1039F00021F901F0D7F9814601F0BCF904000D006E
:103A0000B14AB24B01F03DF90022B14B01F012F97D
:103A100001F0C8F90600AF4AAF4B2000290001F0C1
:103A200030F904000D00300001F0A4F9AB4AAC4BB2
:103A300001F027F902000B002000290001F0F1F845
:103A400004000D0002000B0001F01BF90A900B911D
:103A5000A44BF31800261F0522002B00200029008C
:103A600001F0E8F80E900F9122002B000020802139
:103A7000C90501F0D6F804000D0000229A4B0A98FF
:103A80000B9901F0E0F80022984B01F0D3F8020006
:103A90000B000A980B9901F0D6F80022944B01F024
:103AA000C9F802000B000A980B9901F0CCF802004B
:103AB0000B002000290001F0BDF802000B000E9859
:103AC0000F9901F0C0F80022774B01F0B3F83200F3
:103AD0003B0001F0D6F806000F0004000D00069A26
:103AE000079B01F02FF9002830D001235B429C4650
:103AF000E14400227D4B3000390001F0A4F80400BD
:103B00000D0023E01E9B04931D9B03931C9B0293BB
:103B1000089A099B0092019343460C9A51465846D5
:103B200000F0FCF811B0F0BCBB46B246A946A04676
:103B3000F0BD0023002406930794069680231B06FD
:103B40009C46654407951AE7002399464B46633324
:103B5000C62B1ED804261E9B1B0526D52B002343EF
:103B60000FD0644A644B0698079901F0E3F80028E7
:103B700079D00022614B0698079901F0CDF8002812
:103B800071D01C9B4B4506DD4A46981A431E1C9378
:103B900003E00526DFE700231C938023DB001E9A49
:103BA0001A431E920026002399461D9B9E4264D212
:103BB0009F1B02231E9A1A400A921E9A134202D099
:103BC000002E00D000274B46002B07D022002B00F0
:103BD0000698079901F037F8069007910022002314
:103BE0000898099901F098F8002848D1444B1E9A8A
:103BF0001340049303971C9B0293069B079C00931E
:103C0000019443460C9A5146584600F087F8002E1E
:103C100000D187E71E9B9B063DD54525441C4346A6
:103C2000020051462800D8474B46DA179B185340EC
:103C300005220592013E0496002203920A32029266
:103C40004A46D00F01900093434622005146584601
:103C5000FFF78AFD0A9B002B00D163E702005F4655
:103C60000C9E1D9D54E01C9B002B9ED00D9B002B99
:103C70009BD01C9B013B1C9397E7002799E7069C70
:103C8000079D2200290080200006844661440B0025
:103C900006920793AAE76525C0E7C046FFFFEF7FBE
:103CA000FFFFEFFF01FCFFFF0000F03FFB799F509B
:103CB0001344D33FB3C8608B288AC63F0000F83F47
:103CC00061436F63A787D23F71A379094F930A407D
:103CD0000000E03F1655B5BBB16B0240EF39FAFE6C
:103CE000422EE63FFF03000000002C40000024406D
:103CF000000018402D431CEBE2361A3F80842E4111
:103D0000FFF7FFFF541C434651462020B8472200CE
:103D1000931BAB42F6D3100004E7C046F0B5DE4675
:103D200057464E464546E0B595B0069007919346F6
:103D30009946209F1E9A1F9B1000190001F007F85A
:103D4000002831D101225242BF4B1E981F9900F02A
:103D5000E3FF002837D101225242BC4B1E981F9925
:103D600000F0F0FF00283DD10022B94B1E981F99AA
:103D700000F0E8FF002850D10022B64B1E981F9992
:103D800000F0CAFF002848D1002200231E981F9986
:103D900000F0C2FF002850D100239846229B5B050B
:103DA00000D4B6E0002458E0229B0393219B0293A9
:103DB00003230193A84B00934B465A460799069854
:103DC000FFF7F2FB0EE1229B0393219B0293042356
:103DD0000193A24B00934B465A4607990698FFF76A
:103DE000E3FBFFE00423229A1A4022990B4210D0F1
:103DF0009B4B002A0FD00422229903912199029112
:103E0000019200934B465A4607990698FFF7CCFB60
:103E1000E8E0944BEDE70322EEE7229B0493219B1D
:103E2000039302971E9B1F9C009301944B465A4696
:103E300007990698FFF768FDD4E01E9A1F9B0020A3
:103E4000002100F0EEFE1E901F9101239846A5E789
:103E50000CAB30221A55013F01341F2C01D8092F19
:103E6000F6D81E981F9900F09DFF050000F082FF14
:103E700002000B001E981F9900F0D3FEFA007A4B47
:103E80009B181A685B680A920B9300F0FAFE089080
:103E9000099100F0ABFF060000F068FF02000B0084
:103EA0000898099900F0BDFE0890099100226F4B17
:103EB00000F048FF00282ED00136300000F056FFF9
:103EC00002000B000A980B9900F02CFF002801D08B
:103ED00001350026002F2CD1280000F04BFF0200F6
:103EE0000B001E981F9900F09CFE06000F00002298
:103EF0005E4B00F011FF002846D100225B4B3000E2
:103F0000390000F01FFF00283ED1EB073CD50135FA
:103F10003AE0062746E70022544B0898099900F03A
:103F2000FBFE0028D6D1002E01D0F307D2D50136F2
:103F3000D0E7AA461F2C11D8013F0A21300000F01B
:103F400029FC651C30310CAB19550A21300000F0FA
:103F500021FC092E0ED906002C00EBE755461F2C3C
:103F60000CD87B1E002F09D00CAA302111551F0040
:103F70000134F4E72B0055461C00F0E71F2C03D852
:103F80000CAB2E221A5501341F2C10D80A21280000
:103F900000F0D8FB661C30310CAB19550A21280003
:103FA00000F0D0FB051E01D03400EDE73400032300
:103FB000229A1340012B1CD01F2C06D84346002BFD
:103FC00032D00CAB2D221A550134229B0393219B36
:103FD000029301940CAB00934B465A4607990698FE
:103FE000FFF7E2FA15B0F0BCBB46B246A946A046C0
:103FF000F0BD219B002B13D04346002B02D10C3384
:1040000013420FD0219B013B2193190003E00CAB1D
:1040100030221A5501348C42CED21F2CF7D9CBE76F
:104020002199F8E72199F6E7229B5B0704D50CABB1
:104030002B221A550134C8E7229B1B07C5D50CABB0
:1040400020221A550134C0E7FFFFEFFFFFFFEF7F8B
:1040500065CDCD4165CDCDC134F2001038F20010F0
:104060002CF2001028F2001020F400100000E03FB5
:10407000F0B5DE4657464E464546E0B593B082461B
:104080008B4690461193002900D1EBE2002755465C
:10409000119B1878002800D1E7E2252809D07C1C64
:1040A00043463A005946A847119B01331193270014
:1040B000EEE7013311930024119A11780B00203B95
:1040C000D8B2102803D88300D048C3589F460B00AD
:1040D000303BDBB2092B2CD92A292FD000230A939D
:1040E000119B1A782E2A39D000239A46119A1378F8
:1040F000683BD9B2122976D88B00C549CB589F4668
:1041000001231C4301321192D6E702231C430132E2
:104110001192D1E704231C4301321192CCE708230A
:104120001C4301321192C7E710231C430132119244
:10413000C2E711A8FFF726FA0A90D1E71C9B1A1DC7
:104140001C921868002804DB0A90119B013311931C
:10415000C6E702231C4343420A93F6E78022D200BB
:1041600014435A1C11925A781300303BDBB2092BCE
:1041700004D92A2A07D000239A46B7E711A8FFF7E7
:1041800001FA8246B2E71C9B1A1D1C92186800288F
:1041900004DB8246119B01331193A7E70020F8E767
:1041A00080235B002343511C119152786C2A01D06B
:1041B0001C0018E0C0239B001C430131119112E048
:1041C00080232343511C11915278682A01D01C008E
:1041D00009E0C0231C430131119104E080235B00FE
:1041E0001C4301321192119B18780300253BDAB26F
:1041F000532A00D92CE29300864AD3589F46802345
:104200009B001C4301321192EDE780235B001C43AD
:1042100001321192E7E7782809D0582838D06F2862
:1042200038D0622838D010239C430A2600E010269C
:10423000582833D0692803D0642801D00C22944335
:10424000630501D50122944369282AD0642828D027
:10425000A30500D59FE0E30500D5B8E0630600D4D0
:10426000CAE01C9A111D1C911168FF220A40059496
:104270000A9B0493534603930296002301930092F2
:1042800043463A0059462800FFF76EFA070027E038
:104290001026CDE70826CBE70226C9E720221443E3
:1042A000C8E7A30520D4E30550D4630666D51C9A5D
:1042B000111D1C911168FF220A40D317D1185940D3
:1042C00005940A9B0493534603930296D20F0192DE
:1042D000009143463A0059462800FFF745FA070087
:1042E000119B01331193D3E61C9BDA1D07218A43EE
:1042F000110008311C91116853689C46DB170C9320
:104300000D930C9A0D9B100048400E90624653404E
:104310000F930E980F990C9A0D9B801A99410E904D
:104320000F9108940A9B0793534606930496002323
:1043300005936346DA0F02920090019143463A00DA
:1043400059462800FFF76EFA0700C9E71C9A111DAD
:104350001C911268D317D118594005940A9B0493F5
:10436000534603930296D20F0192009143463A00BE
:1043700059462800FFF7F8F90700B1E7230605D5ED
:104380001C9A111D1C910023D25E96E71C9A111DE8
:104390001C91126891E71C9BDA1D07218A431100CA
:1043A00008311C9108940A9B079353460693049680
:1043B00000230593029313685468009301944346C5
:1043C0003A0059462800FFF72DFA070088E71C9AA3
:1043D000111D1C9105940A9B049353460393029666
:1043E000002301931368009343463A00594628007E
:1043F000FFF7BAF9070073E723060DD51C9A111DC4
:104400001C9112681204120C31E7C04640F20010F1
:1044100084F20010D0F200101C9A111D1C91126839
:1044200025E746281AD01C9B0733072293431A001E
:1044300008321C9204940A9A0392524602925C68D3
:104440001B680093019443463A0059462800FFF741
:1044500065FC0700119B0133119319E620231C43CF
:10446000E1E7672801D0472802D180231B011C43C4
:10447000452801D0472801D120231C431C9B07332A
:10448000072293431A0008321C9204940A9A03925A
:10449000524602925C681B680093019443463A00BE
:1044A00059462800FFF730FA0700119B013311939A
:1044B000EEE502231A002240924623421FD0012437
:1044C0001C9B1A1D1C927A1C9146187843463A0090
:1044D0005946A8475346002B16D1119B013311931F
:1044E0004F46D5E5561C434659462020B847230081
:1044F00032005C1C9D42F5D83D001700E0E7012327
:104500003A002F000A9DF4E74A46A9460A9D06E0B4
:10451000571C434659462020C84734003A00661CC1
:10452000A542F5D84D469146D7E71C9B1A1D1C9213
:104530001B6899465346002B00D1013B4E4601E0D3
:10454000013613003278002A02D05A1E002BF7D110
:104550004B46F21A10928023DB0026001E401C42BC
:1045600003D0524501D95346109302231A0022402A
:104570000B92234205D03A0037004C46A9465546D7
:1045800020E03A00109B5F46B3462E0006E0551C23
:10459000434639002020B04723002A005C1C0A99BA
:1045A0009942F4D835005E46BB46109437004C461D
:1045B000A946554606E01D000134561C434659469F
:1045C000C84732002078002804D0002FF4D06B1E9A
:1045D000002DF0D117004D460B9B002B03D1119BF2
:1045E0000133119354E50A9F109B06E0561C434685
:1045F00059462020A847230032005C1C9F42F5D872
:104600001700ECE721231C431C9B1A1D1C921B68FE
:1046100000930594082304935346039310230293B5
:104620000023019343463A0059462800FFF79CF8BF
:104630000700119B013311932AE57C1C43463A0085
:1046400059462520A847119B0133119327001FE5E8
:104650007C1C43463A005946A847119B01331193ED
:10466000270015E50A4B9A4610E5AA46474502D3AE
:1046700043465A1E00E03A00434659460020D047C0
:10468000380013B0F0BCBB46B246A946A046F0BD08
:10469000753500100EB410B585B0010007AC08CC1C
:1046A00003940122009452420348FFF7E1FC05B055
:1046B00010BC08BC03B018476D35001000B585B0BC
:1046C000029003910121009313004A4202A902487B
:1046D000FFF7CEFC05B000BD77350010014804217E
:1046E000014B1847B00E00200D47001010B5010017
:1046F00018231B8814221088984710BD10B501009C
:1047000018231B8816221088984710BDF0B5C6469E
:1047100000B507000E0000250123984600E0013592
:10472000B5420AD2AC003C192068FFF7DFFF2060D9
:104730000028F4D100239846F1E7404680BCB846F3
:10474000F0BD0000124A936F9B0815D29066D166A7
:10475000002905D0FFE7FFE7FFE7516F106F7047B3
:1047600004B580210906C2175140002800D0C84373
:1047700009F016FE002104BDF0B5146E556E576F9A
:10478000166FFFF7E3FF1466556657671667F0BDAF
:10479000000000D0114A936F9B0813D21066516637
:1047A000002905D0FFE7FFE7FFE7516F106F704763
:1047B00004B5002801D00020C04309F0F1FD00211C
:1047C00004BDC046F0B5146E556E576F166FFFF7F7
:1047D000E5FF1466556657671667F0BD000000D008
:1047E00094464A4A926F9208624601D228E0C04637
:1047F000F0B5464E346E756E776F366F00F020F868
:104800009446424A14665566576716676246F0BD7D
:1048100094463E4A926F9208624601D254E0C046E6
:10482000F0B53A4E346E756E776F366F00F04CF817
:104830009446364A14665566576716676246F0BD59
:10484000002B24DB11D000293EDA00B5C9434042D9
:1048500000D1013100F038F8C943404200D10131A4
:10486000DB43524200D1013300BD002AEBD10028C6
:1048700001D1002905D00020C90FC90701D1C043CB
:10488000410800B509F084FD0022002300BD00B5F9
:1048900000290ADBDB43524200D1013300F014F857
:1048A000C943404200D1013100BDC943404200D15B
:1048B0000131DB43524200D1013300F005F8DB4304
:1048C000524200D1013300BD002923D1002B18D161
:1048D000002A0CD0BC460D4F38667A6600210023B2
:1048E000FFE7FFE7FFE77A6F386F674670470028FA
:1048F00001D00748010000B509F04AFD002200235D
:1049000000BD02000B00002000217047000000D015
:10491000FFFFFFFF002B00D0BFE0130C28D1002ABF
:10492000E7D080B4114F39667A66FFE7FFE730B40D
:10493000040C7B6F396F1B0423433B667A66FFE7E9
:10494000FFE7FFE7C04684B27B6F3D6F1B04234344
:104950003B667A66FFE7FFE7C04600232C042D0C78
:104960007A6F386F00196941B0BC7047000000D001
:10497000F0B594460025140E01D112020835140F2B
:1049800001D112010435940F01D192000235D40FE8
:1049900001D152000135D40B0134254F7C66254CE2
:1049A0003C660E0C93B2FFE7FFE7FFE73C6F664300
:1049B000360C7703BE467343DF0B5B04C01AB94164
:1049C000130C7343DB18C91ACE086643360CB64481
:1049D00093B273431F0F1B01C01AB941130C7343E9
:1049E0001F0B1B05C01AB941860D8F023E4366435B
:1049F000360C092D24DB520A7243801A7703460ACB
:104A00006643360C16235B1BDE40DF40BF1964464D
:104A10006643821B7046043506330100D940A84026
:104A2000C01900D30131A24206D20023F0BD00001C
:104A3000000000D0FFFFFFFF121B0130F3D3F1E7AE
:104A400009277F1BFE406446A2B27243801A00D23F
:104A50000139220C7243130C1204821A99410B0083
:104A60007046043513370100F940A840801900D37F
:104A70000131002B02D1A2420AD2F0BD013000D395
:104A80000131121BFAD2013BF8D1A24200D2F0BD93
:104A9000013000D30131121BF7E7F0B51C0C00D038
:104AA00080E00CB400251C0A04D11B02160E33430F
:104AB000120208351C0B04D11B01160F33431201DF
:104AC00004359C0B04D19B00960F334392000235B2
:104AD000DC0B02D192185B4101351C009718644130
:104AE0000134464F7C66464C3C660E0CFFE7FFE700
:104AF000FFE7C0463C6F6643360C7703BE4697B26D
:104B00007743C01B00D20139C01B00D201399FB2CC
:104B10007743C91BC91B170C77437E04FF0B801B0F
:104B2000B941CE086643360C0C2D33DBB644120B6C
:104B30001F053A431B0B97B27743C01B00D20139C4
:104B40009FB27743C91B170C77433E043F0C801B71
:104B5000B941860D8F023E43664329277F1BFE40E5
:104B60000C3D7746AF40BF1930BCA2B2ABB2724326
:104B70007343801A9941220C7243130C1204801A59
:104B8000994102000B000137001BA941F9D2781EA0
:104B90000021F0BD0C277F1BFE4077467F0BAF4006
:104BA000FF19E0E700245D1C07D0144F7D663966CD
:104BB000FFE7FFE7FFE7FFE73C6F95B29EB2654373
:104BC0006643401BB141150C1E0C65436643360419
:104BD0002F0C3E432D04401BB141994204D20200E8
:104BE0000B0020000021F0BD01D19042F7D3801AC4
:104BF000994101349942F2D3F6E70000000000D059
:104C0000FFFFFFFF44464D4656465F46F0B47047EF
:104C1000F0BCA046A946B246BB467047484041405A
:104C2000484018B41B4B5B68FC46019308BD04DF89
:104C3000A352001018B4174B1B68FC46019308BD23
:104C400000DFAD5200109446134A926F920809D2C9
:104C5000624618B40F4BDB68FC46019308BD0CDFBD
:104C6000655500100C4AF0B5146E556E576F166FEF
:104C70006246FFF7EEFF084A1466556657671667E7
:104C8000F0BD18B4034B9B68FC46019308BD08DFD8
:104C90000954001050250020000000D0FFB55040FE
:104CA0004240504059404B40594000E0FFB5154F3D
:104CB0004C00640D03D0BC4204D10C0314D8002076
:104CC000090D09055C00640D03D0BC4204D11C032E
:104CD0000AD800221B0D1B0501264B4009D44B406E
:104CE00003D58B4200D18242FFBD9942FCD1904254
:104CF000FFBD0B43DB1803431343F5D0C9434918E9
:104D0000FFBD0000FF07000000B5FFF7CFFF01D097
:104D1000002000BD012000BD00B5FFF7C7FF8041A6
:104D200000BDC04600B5FFF7C1FF01D9002000BD9E
:104D3000012000BD00B5FFF7B1FF01D9002000BD83
:104D4000012000BD00B5FFF7A9FF804100BD012093
:104D500040054A00121804D85A00121801D8002041
:104D60007047012070470020704700000021002894
:104D700005D17047C1174840401AFAD0C90713B58A
:104D8000064B1B6898470CBC441CA2401005120B34
:104D90000349091B09051943114310BD5026002082
:104DA0001F04000010B54C00620D8023D218DB00F8
:104DB000D21A5B057E2A10DD9E3A13DACC1709035E
:104DC000490819435242D140640001341532202A67
:104DD00005DAD0400843604310BD002010BD0846EE
:104DE000604310BDC80FC018013810BD18B4044B83
:104DF0005B6AFC46019308BD24DF99570010000050
:104E00005025002018B4044B1B6EFC46019308BDCE
:104E100060DFA758001000005025002018B4044B94
:104E2000DB6DFC46019308BD5CDFA5580010000057
:104E300050250020C94211D300B54900490800227D
:104E400000F018F8002904D4002240428A4111469B
:104E500000BD80210906002000BD000018B4044BED
:104E6000DB6EFC46019308BD6CDFA7570010000005
:104E70005025002018B4044B9B6FFC46019308BDDD
:104E800078DFC357001000005025002018B4044BF1
:104E9000DB6FFC46019308BD7CDF31580010000039
:104EA00050250020024A034B00B500F0D5F900BDA3
:104EB000182D4454FB2119408A0002D3920D092A6F
:104EC00008DA18B4064BDB6BFC46019308BD3CDFE7
:104ED000DB59001000B5FFF7E5FF04BC9646F0E78C
:104EE0005025002070B513231C78012C14D0012C00
:104EF00014DC022C02DC1F4A1F4B9A641F48FFF788
:104F0000F5FB1F4B186070BD99001A481A4A88506B
:104F100001331F2BF8D9EAE70023FAE71948FFF716
:104F2000EDFB05001848FFF7E9FB023803789B000A
:104F30007F2B19DD802229000F4801F091F8022C07
:104F4000D7D1124B1A88B5231B029A4209D1104BB4
:104F50001A88104B9A4204D10F4B1A880F4B9A4271
:104F6000C7D00020FEF7EAFA0D4B0E4A32210E4858
:104F7000FEF74AFA69520010502500204C33000019
:104F800050260020534400005346000054380000CF
:104F9000D8380000494600009C38000059460000FF
:104FA00070F4001028F50010C4F40010F0B5DE46CF
:104FB00057464E464546E0B585B004000D000092C8
:104FC00001930E9B9A46002B45DD019B1911012090
:104FD0004042FFF7DFFB039000239B4629E00C23B0
:104FE0009946AB11039A53431D224946521A134165
:104FF00001335B109846202252428B1821D42200A4
:105000009A40170023004A4693401E004346D91792
:10501000009A019B404600F069FE34003D00241ACE
:105020008D415B464A46934043449B4653469B1AF8
:105030009A465346002B11DD53460C2BCFDCD1464C
:10504000CFE720235B1A2200DA4013002A008A40AF
:1050500017001F43D6E700230393BDE7009A019B87
:10506000AB4209DC01D1A24206D8009A019BA41AE6
:105070009D4101239C46E344009A019BAB4209DC1D
:1050800001D1A24206D8009A019BA41A9D41012396
:105090009C46E344002D0FDB002D16DB0F9B002BFD
:1050A00001D05A461A602000290005B0F0BCBB466A
:1050B000B246A946A046F0BD009A019BA4185D41E6
:1050C00001235B429C46E344E6E7009A019BA41857
:1050D0005D4101235B429C46E344DFE7F0B5C646F1
:1050E00000B58AB007900F0011001A00FE0F3B0DAB
:1050F0005B055B0D3D032D0B802464030490254369
:105100000595D50FA846150D6D056D0D1203120BF3
:10511000029114430394109A002A02D0002210999D
:105120000A604A4A934200D17DE0002D00D17DE023
:10513000002B00D182E0954200D182E06A1E9A42A3
:1051400000DD80E044D0002E06D0049E059F0022A2
:105150007142BA410491059209AA01925B1B009326
:10516000029A039B04980599FFF720FF06000F00A1
:1051700003000C009B197C412200029803998C4289
:105180000BDC01D1834208D802998B420CD1039BDE
:105190009A4209D1099BDB0706D5029B039CF61AAC
:1051A000A741099B013309934346002B02D0099B79
:1051B0005B420993109B002B01D0099A1A60244A84
:1051C000521B30003900FFF71DFE06000F002FE0D4
:1051D000039B059999420FDD002E17D1029C039D78
:1051E00024196D4104980599001BA94106000F0080
:1051F000012309931500D7E7029B039C0598A04261
:1052000002D104999942E7D8079E11E0029E039FBC
:10521000B6197F41049B059CF61AA74101235B4206
:1052200009931500C0E700260A4F01E00026094F48
:10523000300039000AB080BCB846F0BD0026002717
:10524000F6E7079EF4E7079EF2E7C046FF07000077
:10525000330400000000F07F10B582B000240094F9
:10526000FFF73CFF02B010BD07B56046002800D133
:1052700000BE01880A0A0230DF2AFAD1C9B28208C8
:1052800004D3028840880004104300E00068024A0A
:105290005050039007BD0000502500200FB403BC00
:1052A0000CBCF0B50124E407634000E0F0B50C0D40
:1052B000CF0F661E3605891B640503D3C9434042E0
:1052C00000D30131640D03D0661CF60A07D0E41B3D
:1052D00000207F00791C89078912803C24031D0D62
:1052E000DF0F6E1E36059B1B6D0503D3DB43524259
:1052F00000D301336D0D03D06E1CF60A07D0ED1BF1
:1053000000227F007B1C9B079B12803D2D032F1BDF
:10531000661B58D4A446202E46DA20371400BC4021
:105320001D00BD40F24033412A4380185941CB0F44
:1053300005D0C943C04300226442504151416246F6
:105340004D0D28D10D0D07D100281FD02419404143
:105350004941013A0D0DF9D0640006D3013000D364
:105360000131002C01D140084000013A0BD4941CBB
:10537000E40A04D112051144DB071944F0BDD90732
:10538000204B194300E0D9070020F0BD0029DDD1F2
:10539000002CDBD1F0BD0132C6074008CD07284301
:1053A0004908002EE1D0D9E73C2E29DA203E4037CB
:1053B0001400BC4000D00124F24014431A00BB404A
:1053C0001C43D317ACE7AC46202F08DA2036040084
:1053D000B4400D00B540F84039412843A5E73C2FC3
:1053E0000CDA203F40360400B44000D00124F840DD
:1053F00004430800B1400C43C117EAE7100019004C
:10540000002494E70000F07FF0B50C0D661E360511
:10541000891BE60A6405640D02D0651CED0A04D000
:10542000002001210905803C2403A4461C0D671EB1
:105430003F05DB1BE70A6405640D02D0651CED0A1D
:1054400004D0002201231B05803C240377406444E0
:1054500097B484B296B27443070C7E43150C6F4325
:1054600080B26843361802D3012000043F1830048C
:10547000350C00197D41844688B29AB250430C0C19
:1054800062431F0C7C438EB27E43921902D30126E5
:105490003604A4191604170C3618674101BC81B2F2
:1054A0009AB25143040C62431B0C5C4380B25843D4
:1054B000121802D30120000424181004130C401801
:1054C00063412D185E410020474106BC88B293B26B
:1054D00058430C0C6343120C544389B251435B187C
:1054E00002D301210904641819041A0C0918624135
:1054F0006D1856410020474118BCF902720D114346
:10550000F0026A0D1043ED020A0D03D16D194041FE
:105510004941013B124E9B1B7600B3420ED26D00F7
:1055200007D30130002671416646354301D140085A
:1055300040001B05C918E4072144F0BD0BDA013314
:1055400006D1013004D101314F0D01D04908F2E7F5
:10555000E1070020F0BD013631050020EBE7000037
:10556000FF030000F0B51C0D671E3F05DB1BE70ABB
:105570006405640D02D0661CF60A04D000220123E3
:105580001B05803C2403D0252D060026F6432E66FD
:105590001E096E66CE0FF619B44649004F0D02D0B3
:1055A0007E1CF60A03D000200021403F3F033E1B33
:1055B000B600B444013F7F05C91B49082E6F013670
:1055C00076089C02950D25437543ED137543AD1385
:1055D00001356D10F603761B0CB4CC02450D2C433F
:1055E000A2B2B3B25A43270C7B43350C6F43A4B22B
:1055F0006C431B1902D3012424043F191C041D0C05
:10560000A4187D4124196D41009A91B2ACB2614356
:10561000170C7C432B0C5F4392B25A43A41802D35D
:1056200001221204BF182204230C52187B41019C52
:105630006C431B19520ED9010A434401A01A81B2CE
:10564000B2B2514303145A43360C734387B27743C3
:10565000D617D21900277E4136049B191704160C61
:105660007F185E417316ED18F301002680337541F3
:10567000A90F06D16400690AE8055B0A184309D23C
:105680002FE00422944480337541A90AA8059B0A9F
:10569000184326D3404149412404009A019B0D0040
:1056A0005543641B4343E41A95B286B27543170C05
:1056B0007E43030C5F4392B25A43B61802D30122D1
:1056C0001204BF183204330C52197B4152429C41E0
:1056D000002C02D40022013051414008CA07104377
:1056E000490802B06246D7079210084BD218084BFF
:1056F0009A4203D212058918C919F0BD0020002A68
:1057000001DC3900F0BD01331905F5E7FD030000A8
:10571000FE070000624618CA94465A46002A20DB5B
:1057200004E0624618CA944600291ADAC01861419A
:105730005B463B415C46B4405246FA4022434446F5
:105740004D4662416B41904699462B46B3403D41E0
:10575000FC401C4352465B46A241AB4192469B46ED
:105760007047C01AA1414B463B414C46B4404246AB
:10577000FA40224354465D4662416B4192469B4645
:105780002B46B3403D41FC401C4342464B46A241A0
:10579000AB41904699467047002200B5203200F098
:1057A00010F8080000BD002200B500F00CF8CA1780
:1057B0009A4200D100BDD8430121C907414000BD34
:1057C00000220B150AD410B5944600F0A7F8141463
:1057D000013400DA0021CB17144C204700200021AF
:1057E00070476244343A0CD40C2A07DA0400914022
:1057F000904052422032D440214310BDD843D94377
:1058000010BD203207D40C46944052422032114140
:10581000D040204310BD0800C917203203D45242A3
:105820002032104110BD1800190010BDE3570010C0
:105830004A00520D144BD21A13DDFF2A1EDAD2058C
:10584000CB0FDB071A43C300400F0903490A084383
:1058500010435B0001D301D0013070474308FBD2F5
:10586000704702D0C80FC00770470A0312130132F5
:10587000F8D1420F072AF5D1012200E0FF22C80F1C
:1058800000028018C00570478003000000210A0054
:10589000002104E000210A00C11704E000220023D7
:1058A00006E0C0460022CB1758405940C01A994123
:1058B00030B5184CA21A002903D1010010D00020E5
:1058C000203A4C1512D104D2013A001849414C0D2E
:1058D000FAD3114CA24204D212058918DB07C91869
:1058E00030BDD243520D00200021F5E703D4013A28
:1058F00000184941FBD50B324405C00A4D05284329
:10590000C90A640003D0002460416141E1E7E0D3AB
:105910004408F8E732040000FE0700000A0DCC0F2F
:10592000531E1B05C91A520503D3C943404200D375
:105930000131520D03D0531CDB0A07D0121B00208B
:105940006400611C89078912803A1203014BD21A44
:1059500070470000FF030000023225D40C2A1CDA35
:105960001125AD1A0B002B41083207350600EE4019
:10597000904091403143F0CC63431A1500235A41C3
:10598000554356435743BF02F412760576196741D3
:10599000ED177F19801BB94170470C220020C917F1
:1059A000490001310905DBE70902030E1943000232
:1059B0005342203208D40C0019419440D84020436F
:1059C00000225041514170470800C917203B203246
:1059D000F1D50020002100227047F0B5FFF712F941
:1059E00000F00EF800F030F806E0F0B5FFF70AF925
:1059F00000F006F800F046F8FFF70AF9F0BD0000E5
:105A000000B5FFF78BFF30A4FFF7A6FF00242C4D55
:105A10002C4ED20702D3F6436D426641520004D2A7
:105A2000A246A346A846B14603E0A046A146AA4620
:105A3000B3466EA4A44601271F26FFF772FE013766
:105A4000013E212FF9D100BD594684B28DB26C437D
:105A5000061475430B145E4382B25A43AD18EA171D
:105A600000D7D2431204B6182A042B0C1219734122
:105A7000404649469D009B17920F2A439041994109
:105A80003E2210E7494684B28DB26C43061475433A
:105A90000B145E4382B25A43AD18EA1700D7D243C3
:105AA0001204B6182A042B0C121973415046594699
:105AB0009D009B17920F2A43504159413E22F2E626
:105AC000BB4DF09DC556F6367D5100001A6114009D
:105AD00085880A00FB211900F0B5FFF793F8404DC7
